:100000000C942A000C9493000C943C000C943C003B
:100010000C943C000C943C000C943C000C943C0070
:100020000C943C000C943C000C943C000C943C0060
:100030000C943C000C943C000C943C000C943C0050
:100040000C943C000C943C000C943C000C943C0040
:100050000C943C0011241FBECFE5D4E0DEBFCDBF21
:1000600010E0A0E6B0E001C01D92A037B107E1F7B3
:100070000E94C2000C9410020C940000C498806886
:100080008FB9779BFECF6FB9779BFECFC49A089547
:10009000C4988F778FB9779BFECF1FB8779BFECF21
:1000A000C49A8FB10895C49880688FB9779BFECFAA
:1000B000FB0190E006C080818FB9779BFECF9F5FE8
:1000C00031969417C0F3C49A089563B373B37074F0
:1000D00083B3807293B3907123B3287033B33470B9
:1000E00043B3427053B3729576957770661F662757
:1000F000661F762B869586958695782B9695792B17
:10010000220F722B330F330F330F732B4295440F93
:10011000407E742B579555275795752B709509F48C
:1001200071E0872F08951F920F920FB60F9211243E
:100130002F933F934F935F936F937F938F939F93EF
:10014000AF93BF93EF93FF9387E061E40E943E007B
:1001500083E00E94480084E00E94480081E0809390
:100160006F00FF91EF91BF91AF919F918F917F9120
:100170006F915F914F913F912F910F900FBE0F9014
:100180001F9018950F931F93CF93DF9386EB87BB38
:10019000C09AC19AC29A11BA12BA14BA8FEF85BB2B
:1001A0001ABA8BBB15BE80E48BBFC49A80E58DB9AB
:1001B00081E08EB98CED95E028EB30E0F9013197C4
:1001C000F1F70197D9F787E060E80E943E008CEDD7
:1001D00095E028EB30E0F9013197F1F70197D9F775
:1001E00085E060E00E943E0086E060E00E943E0004
:1001F00083E00E94480084E00E94480087E061E0BC
:100200000E943E008AE56FE70E943E0088E560E8B4
:100210000E943E0089E560E40E943E008AE66BE0B1
:100220000E943E0088E664E00E943E008FE163E0A9
:100230000E943E0089E065E70E943E008AE060E09F
:100240000E943E008BE062ED0E943E008CE065ED76
:100250000E943E008DE060E00E943E008FE060E77B
:100260000E943E0080E160E00E943E0082E160E08A
:100270000E943E0083E160E00E943E008CE164E069
:100280000E943E008DE160E40E943E008EE165E048
:100290000E943E0080E268EC0E943E0081E260E045
:1002A0000E943E0082E263EA0E943E0083E267ED24
:1002B0000E943E0084E260E00E943E0085E266EA21
:1002C0000E943E0080E36EE80E943E0082E360E010
:1002D0000E943E0083E362E00E943E0084E360E10E
:1002E0000E943E0085E360E30E943E0086E36DE2EB
:1002F0000E943E0087E364ED0E943E0089E660E2D2
:100300000E943E008EE365E00E943E008DE660E0C4
:100310000E943E0080E761E20E943E0081E763E2C6
:100320000E943E0082E760E40E943E008EE663EA9F
:100330000E943E008FE667ED0E943E0083E760E08A
:100340000E943E0084E760E00E943E0089E760E092
:100350000E943E008AE760E00E943E0085E763E578
:100360000E943E0086E762E60E943E0087E760E06A
:100370000E943E0085E064E00E943E0088E061E06B
:100380000E943E0088E060E00E943E00789487E092
:1003900061E40E943E0001E01AEAC8EBD0E010924E
:1003A0006F00009360008BE10E9448008093610021
:1003B000109362000E9465008093630089B380936C
:1003C00064008FE760E670E045E00E94530087E03C
:1003D00069E40E943E0080916F008823E1F388E089
:1003E00061E00E943E0088E060E00E943E00C2980A
:1003F00088EB9BE0FE013197F1F70197D9F7C29A9C
:100400000E94650009C020E137E2FE013197F1F753
:1004100021503040D1F78150882309F4C0CFF3CF69
:04042000F894FFCF7E
:00000001FF
